:020000040800F2
:1000000020080020ED0100081D1500087D140008DF
:1000100019150008F90500082D1C00080000000053
:10002000000000000000000000000000A116000811
:100030000D13000800000000A5150008ED170008CA
:10004000070200080702000807020008070200086C
:10005000070200080702000807020008070200085C
:10006000070200080702000807020008070200084C
:10007000070200080702000807020008070200083C
:10008000070200080702000807020008070200082C
:10009000FD05000807020008070200080702000823
:1000A000070200080702000807020008070200080C
:1000B00007020008251900080702000807020008C7
:1000C00007020008070200080702000807020008EC
:1000D00007020008151B00080702000807020008B5
:1000E00007020008070200080702000800000000DD
:1000F0000000000000000000000000000000000000
:1001000000000000000000000702000807020008CD
:10011000070200080702000807020008070200089B
:10012000070200080702000807020008070200088B
:10013000070200080702000807020008070200087B
:100140004906000807020008070200080702000825
:1001500000F002F800F03AF80AA090E8000C82449F
:100160008344AAF10107DA4501D100F02FF8AFF27C
:10017000090EBAE80F0013F0010F18BFFB1A43F085
:10018000010318476434000084340000103A24BF8F
:1001900078C878C1FAD8520724BF30C830C144BFEC
:1001A00004680C607047000000230024002500262E
:1001B000103A28BF78C1FBD8520728BF30C148BFCA
:1001C0000B6070471FB51FBD10B510BD00F033F8B0
:1001D0001146FFF7F7FF01F0A5FE00F051F803B458
:1001E000FFF7F2FF03BC01F047FD0000094880471C
:1001F00009480047FEE7FEE7FEE7FEE7FEE7FEE709
:10020000FEE7FEE7FEE7FEE704480549054A064B20
:1002100070470000F117000851010008200200207B
:100220002008002020040020200400207047704790
:10023000704770477047754600F028F8AE460500D5
:100240006946534620F00700854618B020B5FFF7F1
:10025000DBFFBDE820404FF000064FF000074FF0F5
:1002600000084FF0000B21F00701AC46ACE8C009D4
:10027000ACE8C009ACE8C009ACE8C0098D467047DD
:100280000446AFF300802046FFF7A9FF00487047FF
:10029000BC01002008B50121302001F0A1F94FF484
:1002A000E050ADF8000010208DF8030003208DF819
:1002B00002006946104801F02FF80420ADF8000054
:1002C00048208DF8030003208DF8020069460B4892
:1002D00001F022F84FF48061074801F0B3F84FF4C1
:1002E0008051054801F0AEF8FF2001F010F8FF2022
:1002F00001F00DF808BD000000100140001401409D
:100300002DE9F04104460D4616461F46184801F0F7
:1003100087F9C0F30B08404603F014F8386010204A
:1003200000F0F5FF134801F07BF9C0F30B084046DD
:1003300003F008F82060102000F0E9FF0E4801F0FB
:100340006FF9C0F30B08404602F0FCFF2860102054
:1003500000F0DDFF094801F063F9C0F30B084046E7
:1003600002F0F0FF3060102000F0D1FFBDE8F08116
:100370001083FFFF1087FFFF108BFFFF108FFFFF21
:1003800021B1826842F00102826003E0826822F0BB
:10039000010282607047000010B504461248844292
:1003A00008D10121401501F02BF90021601501F061
:1003B00027F917E00D48844208D10121001501F00A
:1003C0001FF90021201501F01BF90BE008488442B9
:1003D00008D10121C80301F013F900214FF40040B6
:1003E00001F00EF910BD000000240140002801407A
:1003F000003C0140014600208A6802F004020AB174
:10040000012000E0002070470146C86C80B27047B0
:100410000246002013680B400BB1012000E00020D1
:100420007047014600208A6802F008020AB10120E4
:1004300000E000207047000030B502460020002395
:1004400050680F4C20400D790C6844EA0524204385
:10045000506090680B4C2040D1E902542C434D79F8
:1004600044EA450420439060D06A20F470000C7C7C
:10047000641EE4B2234340EA0350D06230BD000062
:10048000FFFEF0FFFDF7F1FFF0B504460D4600203A
:100490000021092D11DDE068A5F10A0606EB4607EB
:1004A000072606FA07F18843A5F10A0606EB460679
:1004B00003FA06F10843E0600CE0206905EB45070C
:1004C000072606FA07F1884305EB450603FA06F10D
:1004D00008432061072A0FDA606B561E06EB860779
:1004E0001F2606FA07F18843561E06EB860605FA14
:1004F00006F10843606322E00D2A0FDA206BD61F55
:1005000006EB86071F2606FA07F18843D61F06EB7F
:10051000860605FA06F10843206310E0E06AA2F1BE
:100520000D0606EB86071F2606FA07F18843A2F19F
:100530000D0606EB860605FA06F10843E062F0BDFB
:10054000816841F008018160704721B1826842F4FE
:10055000A002826003E0826822F4A00282607047F9
:10056000816841F0040181607047000000B587B0E8
:1005700001214FF4027001F033F84FF4004001F014
:1005800013F80220ADF8040000208DF8070001A93F
:10059000174800F0C1FE1748FFF7FEFE002002904A
:1005A0008DF80C008DF80D004FF4602004900020B1
:1005B000059001208DF8180002A90E48FFF73CFFB6
:1005C00001210C48FFF7DCFE0A48FFF7B9FF00BF26
:1005D0000848FFF726FF0028FAD10648FFF7C0FFBA
:1005E00000BF0448FFF706FF0028FAD107B000BD9E
:1005F000000C01400024014000BFFEE700B585B0BB
:1006000002210E4800F00EF9A8B102210B4800F0BB
:1006100031F86A460021094800F027FA0849019894
:10062000884208D19DF80C00064981F881009DF8A8
:100630000E0081F8820005B000BD0000006400409B
:10064000D310F1185C00002000B585B002210848E5
:1006500000F0E8F848B10221054800F00BF86A46BE
:100660000021034800F001FA00BF05B000BD000002
:1006700000680040B1F5007F3AD00FDC202928D077
:1006800006DC01291CD004291DD0082940D11DE019
:10069000402921D0B1F5807F3AD126E0B1F5004F55
:1006A00031D006DCB1F5806F25D0B1F5006F2FD1C8
:1006B00024E0B1F5803F12D0B1F5003F28D111E020
:1006C000154A826025E00822C26022E01022C26042
:1006D0001FE0082202611CE01022026119E00822DA
:1006E000426016E01022426013E00422426010E0F3
:1006F000042242600DE0042242600AE0002282618E
:100700000422426005E0002282610422426000E08F
:1007100000BF00BF704700000101010010B50021BB
:10072000837A012202FA03F13D4A126842F0010283
:100730003B4B1A603A4A1C3212688A43384B1C33CE
:100740001A60027BCAB9364A0C3212688A43344BAB
:100750000C331A604288C38842EA0343304A40326D
:10076000847A42F834300288838842EA03432C4A70
:100770004032847A02EBC4025360027B012A19D111
:10078000274A0C3212680A43254B0C331A60428800
:10079000038842EA0343224A4032847A42F83430E2
:1007A000C288838842EA03431D4A4032847A02EBBE
:1007B000C4025360C27A3AB9194A121D12688A43B8
:1007C000174B1B1D1A6006E0154A121D12680A43DA
:1007D000134B1B1D1A60028932B9114A1432126878
:1007E0008A430F4B14331A600289012A06D10C4A3E
:1007F000143212680A430A4B14331A60427B012AEE
:1008000006D1074A1C3212680A43054B1C331A6092
:10081000034A126822F00102014B1A6010BD000069
:100820000066004070B504460D4600266069284009
:10083000002871D0B5F5807F5CD010DC082D35D054
:1008400006DC012D20D0022D24D0042D72D127E00A
:10085000102D31D0202D35D0402D6BD138E0B5F59D
:10086000004F60D009DCB5F5007F49D0B5F5806F49
:100870004CD0B5F5006F5DD14FE0B5F5803F2DD080
:10088000B5F5003F56D12FE0A0682D4900F0EEFBF2
:10089000064651E0E068032100F0E8FB06464BE025
:1008A000E068082100F0E2FB064645E0E068102120
:1008B00000F0DCFB06463FE02069032100F0D6FB98
:1008C000064639E02069082100F0D0FB064633E0F7
:1008D0002069102100F0CAFB06462DE0606808215F
:1008E00000F0C4FB064627E06068102100F0BEFB64
:1008F000064621E0A069012100F0B8FB06461BE096
:10090000A069022100F0B2FB064615E0A0690421AF
:1009100000F0ACFB06460FE00FE0A069702100F08C
:10092000A5FB064608E06068042100F09FFB064630
:1009300002E0FFE7002600BF00E00026304670BD61
:10094000010101001AB143690B43436102E04369AD
:100950008B434361704730B5024600200023146882
:1009600024F002041460146844F00104146000E0F0
:100970005B1C546804F001041CB94FF6FF74A342D9
:10098000F6D1546804F001040CB900206CE08C79B5
:10099000012C04D1146844F08004146003E014684E
:1009A00024F080041460CC79012C04D1146844F044
:1009B0004004146003E0146824F0400414600C7ACE
:1009C000012C04D1146844F02004146003E014687E
:1009D00024F0200414604C7A012C04D1146844F0F3
:1009E0001004146003E0146824F0100414608C7A7E
:1009F000012C04D1146844F00804146003E0146866
:100A000024F008041460CC7A012C04D1146844F05A
:100A10000404146003E0146824F0040414608C7867
:100A2000A407CD7844EA05640D7944EA05444D797C
:100A300044EA05540D886D1E2C43D461146824F0DB
:100A400001041460002300E05B1C546804F00104FE
:100A50001CB14FF6FF74A342F6D1546804F00104B0
:100A60000CB1002000E0012030BD10B500F5D873B6
:100A700003EB01131B6803F004031372137A53B9D9
:100A800000F5D87303EB01131B6840F2FF7404EA0E
:100A90005353136009E000F5D87303EB01131B688F
:100AA0006FF0604404EAD303536000F5D87303EB9E
:100AB00001131B6803F00203537200F5D87303EBB4
:100AC00001135B6803F00F03937200F5D87303EB17
:100AD00001135B681B0AD37400F5D87303EB011391
:100AE0009B68D37200F5D87303EB01139B681C0A53
:100AF000147300F5D87303EB01139B681C0C54733B
:100B000000F5D87303EB01139B681B0E937300F57C
:100B1000D87303EB0113DB68D37300F5D87303EBD1
:100B20000113DB681C0A147400F5D87303EB01137E
:100B3000DB681C0C547400F5D87303EB0113DB68FD
:100B40001B0E937421B9C36843F02003C36003E014
:100B5000036943F02003036110BD10B50246002075
:100B6000936803F08063B3F1806F00D110E0936865
:100B700003F00063B3F1006F01D1012008E0936836
:100B800003F08053B3F1805F01D1022000E0042024
:100B9000042874D002F5C07303EB00131B6803F044
:100BA000010402F5C07303EB00131C600B7A7BB9E0
:100BB0004B7A0C8843EA445302F5C07404EB0014EA
:100BC0002468234302F5C07404EB0014236010E092
:100BD0000B7A4C6843EAC4034C7A234302F5C07491
:100BE00004EB00142468234302F5C07404EB0014E2
:100BF00023608B7A03F00F038B7202F5C07303EB53
:100C000000135B6823F00F0402F5C07303EB0013BD
:100C10005C6002F5C07303EB00135B688C7A2343BE
:100C200002F5C07404EB001463608B7B1C064B7BE5
:100C300044EA03440B7B44EA0323CC7A234302F5C2
:100C4000C07404EB0014A3608B7C1C064B7C44EA4C
:100C500003440B7C44EA0323CC7B234302F5C0749A
:100C600004EB0014E36002F5C07303EB00131B6890
:100C700043F0010402F5C07303EB00131C6010BDC8
:100C800010B50246002321B1012907D002290FD156
:100C900009E090681D4C00EA04030BE090681C4CCE
:100CA00000EA040306E090681A4C00EA040301E03D
:100CB000002300BF00BF184C181BA34216D007DC4E
:100CC00083B16FF08060184470B1022818D111E030
:100CD000B0F5007F10D0114C204448B1B0F5003F72
:100CE0000ED10BE002230DE000230BE0002309E00E
:100CF000002307E0012305E0012303E0012301E0D5
:100D0000002300BF00BFD8B210BD000003000004E4
:100D10000003000800000310000100080001FFF7B5
:100D200030B589B004460D4614B1012C44D121E000
:100D30000121042000F054FC0121480600F040FC91
:100D40004FF48050ADF8200003208DF822001820C9
:100D50008DF8230008A9544800F0DEFA4FF4006033
:100D6000ADF8200048208DF8230008A94E4800F077
:100D7000D3FA22E00121082000F032FC012188068C
:100D800000F01EFC4FF40050ADF8200003208DF859
:100D9000220018208DF8230008A9444800F0BCFA6E
:100DA0004FF48050ADF8200048208DF8230008A9AA
:100DB0003E4800F0B1FA00E000BF00BF00208DF80F
:100DC0001A008DF81B008DF81C0001208DF81D0005
:100DD00000208DF81E008DF81F008DF816008DF88C
:100DE000170008208DF8180007208DF81900A8B208
:100DF000ADF8140014B1012C0AD104E005A92C4867
:100E0000FFF7A9FD05E005A92A48FFF7A4FD00E0CA
:100E100000BF00BF00208DF80E008DF80F000120EC
:100E20008DF810000020ADF80400ADF80600ADF814
:100E30000800ADF80A00ADF80C0001208DF8110093
:100E400001A8FFF76BFC0E208DF80E000020ADF816
:100E50000C0001A8FFF762FC14B1012C12D108E0CC
:100E6000012202211248FFF76DFD14208DF80000C9
:100E700009E0012202210F48FFF764FD40208DF8B0
:100E8000000000E000BF00BF01208DF8010000203D
:100E90008DF8020001208DF80300684600F040FB49
:100EA000002009B030BD000000080140000C0140E6
:100EB000006400400068004070B586B0044600261B
:100EC0002848029004208DF80C0000208DF80D00B9
:100ED00008208DF80E008F20005D401CC1B28F20CD
:100EE0000155005DFF2802DD00218F20015594F897
:100EF00088008DF80F008920015D8DF810108A2080
:100F0000015D8DF811108B20015D8DF812108C2081
:100F1000015D8DF813108D20015D8DF814108E2069
:100F2000015D8DF815108F20015D8DF8161001A957
:100F30000D48FFF712FE0546002601E0701C86B240
:100F400029460948FFF79CFE18B940F6FF70864213
:100F5000F4DB40F6FF70864202DB012006B070BD74
:100F60000020FBE7D301F1180064004070B586B0A3
:100F7000044600251A48029004208DF80C00002039
:100F80008DF80D0004208DF80E009020005D8DF886
:100F90000F009120015D8DF810109220015D8DF8F9
:100FA0001110015D8DF8121001A90E48FFF7D5FD53
:100FB000064600BF01E0681C85B231460948FFF7CC
:100FC0005FFE18B940F6FF708542F4DB40F6FF7013
:100FD000854202DB012006B070BD0020FBE7000067
:100FE000D302F1180064004070B586B004460025B5
:100FF0001C48029004208DF80C0000208DF80D0094
:1010000006208DF80E0000208DF80F0000218DF8CD
:1010100010108DF811109420015D8DF8121095209C
:10102000015D8DF813109620015D8DF8141001A953
:101030000D48FFF792FD064600BF01E0681C85B22F
:1010400031460948FFF71CFE18B940F6FF7085428B
:10105000F4DB40F6FF70854202DB012006B070BD74
:101060000020FBE7D303F118006400400246002093
:1010700002EA01030BB1012000E0002070470000EC
:1010800010B500241548006820F47060134908600A
:101090000846006840F40060086004E0601CC4B2C8
:1010A000012000F019FF0E48006808B1C82CF5DBDC
:1010B000C82C01DB012010BD002404E0601CC4B278
:1010C000012000F009FF0648006808B9F02CF5DBA4
:1010D000F02C01DB0120EEE70020ECE700080140E6
:1010E0000C0121422DE9F84F00F0CAF800F0A6F8F3
:1010F000FFF7C6FFCC2000F0CFF8BE2000F0CCF800
:1011000000F08AF8834600F087F80446072C08DDD3
:10111000E043C4B26FEA0B0000F0FF0B4FF0000A8F
:1011200001E04FF0010AA1464FEA09200FFA80F9C9
:1011300009EB0B000FFA80F9484602F003F9009022
:1011400001F034FF07460022084B01F011FD05466F
:1011500001F0A2FC0FFA80F9BAF1000F02D0484664
:10116000BDE8F88FC9F1000000B2F9E70000E43FE4
:1011700008B50121042000F033FA0820ADF8000082
:1011800010208DF8030003208DF802006946064800
:1011900000F0C2F80821044800F054F900F04EF8BD
:1011A000FFF76EFF08BD00000008014010B51748AA
:1011B000006820F47060154908600846006840F433
:1011C00040700860002012490860022000F084FE90
:1011D00001201049C1F88C010C48006820F47060AF
:1011E0000A4908600846006840F4006008600C2066
:1011F00000F072FE06488038006808B1012400E063
:101200000024322000F068FE204610BD0008014096
:101210008C0121420000214270B50026012508E022
:10122000FFF7C4FF0446E00140EA6600C6B2681C4E
:10123000C5B2082DF4DD304670BD000010B50D4874
:10124000006820F470600B4908600846006840F4AC
:101250004070086000200849086040F2EE2000F06D
:101260003BFE01200549C1F88C010F2000F034FE3F
:1012700010BD0000000801408C0121420000214205
:1012800010B5FFF7DBFFFFF7FBFECC2000F004F802
:10129000442000F001F810BD70B5044618480068FD
:1012A00020F47060164908600846006840F44070F9
:1012B0000860012520E004F0010664106EB10020F2
:1012C00010490860022000F007FE01200E49C1F815
:1012D0008C013C2000F000FE0CE000200949086071
:1012E0003C2000F0F9FD01200749C1F88C010220E3
:1012F00000F0F2FD681CC5B2082DDCDD70BD0000F9
:10130000000801408C01214200002142704700E0AA
:10131000401E0028FCD170472DE9F041024600250F
:101320000026002000230024002791F803C00CF0C1
:101330000F0591F803C00CF0100CBCF1000F03D0A6
:1013400091F802C04CEA050591F800C0BCF1000F0D
:1013500031D0146800202BE04FF0010C0CFA00F3A0
:10136000B1F800C00CEA03069E4220D183004FF082
:101370000F0C0CFA03F7BC4305FA03FC4CEA040417
:1013800091F803C0BCF1280F06D14FF0010C0CFA04
:1013900000FCC2F814C00AE091F803C0BCF1480F89
:1013A00005D14FF0010C0CFA00FCC2F810C0401C33
:1013B0000828D1D31460B1F800C0BCF1FF0F34DDB0
:1013C000546800202EE000F1080C4FF0010808FAE4
:1013D0000CF3B1F800C00CEA03069E4221D1830051
:1013E0004FF00F0C0CFA03F7BC4305FA03FC4CEA70
:1013F000040491F803C0BCF1280F05D100F1080CDA
:1014000008FA0CF8C2F8148091F803C0BCF1480F38
:1014100007D100F1080C4FF0010808FA0CF8C2F8E7
:101420001080401C0828CED35460BDE8F0810246ED
:10143000002093680B400BB1012000E000207047B2
:10144000416170470161704710B5044607230122CE
:1014500021460948FFF718F801210748FFF775F8FA
:1014600000BF02210448FEF7D3FF0028F9D002484C
:10147000FEF7CAFF10BD00000024014000BFFEE7D8
:1014800010B5FEF707FFFFF773FE00F0D1FB00F089
:10149000E5F900F02BF800F003F8FFF767F810BD4E
:1014A00008B50121142000F09BF84FF4E060ADF87E
:1014B000000010208DF8030003208DF8020069461B
:1014C0000848FFF729FF4FF46070ADF8000048208E
:1014D0008DF8030003208DF8020069460248FFF7EB
:1014E0001BFF08BD000801400010014008B50121A4
:1014F000082000F075F84FF44C40ADF800001020C3
:101500008DF8030003208DF8020069460148FFF7BB
:1015100003FF08BD000C014000BFFEE7704700005C
:1015200070B5002100230F22C47804B3154C246841
:1015300004F4E064C4F5E064210AC1F10403CA4084
:10154000447804FA03F184781440214309010E4CD5
:101550000678A155047804F01F050124AC400578F5
:101560006D11AD0005F1E025C5F8004109E00478F2
:1015700004F01F050124AC40044D0678761145F8AF
:10158000264070BD0CED00E000E400E080E100E0EA
:1015900002490143024A1160704700000000FA0549
:1015A0000CED00E07047000001460020034A50683F
:1015B00020F4404008435060704700000010024093
:1015C00029B1064AD2690243044BDA6104E0034AB6
:1015D000D2698243014BDA6170470000001002407B
:1015E00029B1064A92690243044B9A6104E0034A16
:1015F00092698243014B9A617047000000100240DB
:1016000029B1064AD2680243044BDA6004E0034A77
:10161000D2688243014BDA6070470000001002403C
:1016200070B504464FF480611B48FFF709FF0025A1
:1016300028E004F4004028B14FF400611648FFF799
:1016400001FF04E04FF400611348FFF7F9FE60006A
:1016500004B24FF480511048FFF7F4FEFF20FFF76B
:1016600056FE04210D48FFF7E2FE08B144F00104E4
:101670004FF480510848FFF7E3FEFF20FFF747FED5
:10168000681C85B2102DD4DB4FF480610248FFF74F
:10169000D9FE204670BD000000100140001401403A
:1016A000704710B500F002F810BD00000CB5002026
:1016B000019000903F48006840F480303D49086048
:1016C00000BF3C48006800F4003000900198401CC6
:1016D0000190009818B90198B0F5A06FF1D1354884
:1016E000006800F4003010B10120009001E00020FB
:1016F0000090009801285CD12F48006840F010004D
:101700002D4908600846006820F00300086008467C
:10171000006840F00200086026484068254948609B
:101720000846406848600846406840F48060486069
:101730000846C06A214908401E49C8620846C06A76
:101740001F4908431B49C8620846006840F0806092
:10175000086000BF1748006800F000600028F9D05A
:101760001448406820F47C101249486008464068DC
:1017700040F4E81048600846006840F08070086057
:1017800000BF0C48006800F000700028F9D009483C
:10179000406820F00300074948600846406840F070
:1017A0000200486000BF0348406800F00C000828B1
:1017B000F9D10CBD001002400020024000F0FEFFF5
:1017C00070060100042808D14FF0E021096941F0BA
:1017D00004014FF0E022116107E04FF0E0210969B8
:1017E00021F004014FF0E0221161704770470000C2
:1017F00010B51648006840F001001449086008461A
:10180000406813490840114948600846006811497A
:1018100008400E4908600846006820F480200860EF
:101820000846406820F4FE0048600846006820F042
:10183000A05008604FF47F0088600020C862FFF766
:1018400030FF4FF000600449086010BD00100240F6
:101850000000FFF0FFFFF6FE08ED00E008B50121F3
:101860001C20FFF7BDFEF020ADF8000048208DF8E9
:10187000030003208DF8020069460F48FFF74CFD76
:101880000120ADF8000048208DF8030003208DF8FA
:10189000020069460948FFF73FFD7020ADF80000DF
:1018A00048208DF8030003208DF8020069460448A3
:1018B000FFF732FD08BD000000080140000C0140A8
:1018C000001001401FB501210220FFF779FE40F210
:1018D000E730ADF808004720ADF804000020ADF86F
:1018E0000A00ADF8060001A90D4800F0C1F8012278
:1018F00011460B4800F0B2F81D208DF800000220C0
:101900008DF801008DF8020001208DF80300684673
:10191000FFF706FE0121024800F083F81FBD00001A
:101920000004004010B50121384800F086F8002876
:101930006BD00121354800F071F835484188408866
:10194000401C334A5080052911DB01201146488094
:10195000304890F88000012809D100202D4981F8F5
:101960008000084600F0B2FB2A4800F0F1FD28484C
:10197000C188C088401C264AD080642905DB01202C
:101980001146C8802348FFF797FA2148018900894A
:10199000401C1F4A1081962905DB01201146088151
:1019A0001C48FFF7E3FA1A4841894089401C184A4D
:1019B0005081C82905DB0120114648811548FFF7F1
:1019C00013FB144890F88200804210D11148B0F8FF
:1019D0008410B0F88400401C0E4AA2F88400B1F5CF
:1019E000FA6F04DD4FF4FA601146A1F8840009484B
:1019F00090F88200804203D000200649A1F88400BC
:101A0000044890F882000449087010BD00040040AA
:101A1000020000205C0000200E000020CA43028269
:101A2000704721B1028842F00102028004E002887E
:101A30004FF6FE731A400280704730B50246002010
:101A400000230024158A05EA0103958905EA0104AB
:101A500013B10CB1012000E0002030BD1AB1838920
:101A60000B43838102E083898B43838170470000AD
:101A7000002202881D4B98420ED01D4B98420BD07D
:101A8000B0F1804F08D01B4B984205D01A4B9842BA
:101A900002D01A4B984204D14FF68F731A404B88EC
:101AA0001A43174B984207D0164B984204D04FF672
:101AB000FF431A40CB881A4302808B8883850B88AA
:101AC00003850A4B98420BD0094B984208D00E4B25
:101AD000984205D00D4B984202D00D4B984201D14F
:101AE0000B7A03860123838270470000002C01409B
:101AF000003401400004004000080040000C004099
:101B0000001000400014004000400140004401402B
:101B10000048014010B540F225511D4800F03EF844
:101B200010B31B4800F064F8C4B21A48008800F4EF
:101B30000040C8B91748008800F4804060B10A2C02
:101B400003D000201349088020E01248008840F4A8
:101B500000401049088019E00D2C06D10D4800887E
:101B600040F480400B49088010E00A480088C0F328
:101B70000D0009490C5407480088401C054908809D
:101B800008460088C72801DD0020088010BD00003D
:101B90000038014058000020F400002070B50246D3
:101BA000002400230025002040F66A16B14200D12F
:101BB00000BFC1F3421501F01F03012606FA03F32B
:101BC000012D02D19689334006E0022D02D1168AFA
:101BD000334001E0968A33400C12012606FA04F4E1
:101BE0001688344013B10CB1012000E0002070BD14
:101BF00001468888C0F30800704710B5FFF7F8FD6C
:101C000000F022F94FF4A060FFF7C2FCFFF738FCA8
:101C10000A2000F03BF904210020FFF781F804219D
:101C20000120FFF77DF8FFF74DFE10BD00BFFEE776
:101C300008B501211420FFF7D3FC0720ADF8000000
:101C400048208DF8030003208DF8020069460848FB
:101C5000FFF762FB0820ADF8000048208DF8030074
:101C600003208DF8020069460248FFF755FB08BDC6
:101C70000008014000100140014600BF704700000D
:101C80002DE9F04704460D46002600BF3FE004F171
:101C90000C031A1F211D2046FEF732FBFFF722FA24
:101CA000074601F04FFB20610920FFF7CDFB0746F7
:101CB00001F060FB606151482168006801F0A2F901
:101CC0004E4908604E486168006801F09BF94C4934
:101CD00008604C48A168006801F094F9494908601F
:101CE0004948E168006801F08DF9474908604748B4
:101CF0002169006801F086F9444908604448616937
:101D0000006801F07FF942490860701C06B2AE42DB
:101D1000BDDB284601F016FB81464946374800687E
:101D200001F0DEF9804601F0D1FA07B2384601F041
:101D300009FBA061284601F005FB81464946304871
:101D4000006801F0CDF9804601F0C0FA07B23846CC
:101D500001F0F8FAE061284601F0F4FA81464946BC
:101D60002848006801F0BCF9804601F0AFFA07B2DC
:101D7000384601F0E7FA2062284601F0E3FA81468E
:101D800049462148006801F0ABF9804601F09EFA0F
:101D900007B2384601F0D6FA6062284601F0D2FA5E
:101DA000814649461948006801F09AF9804601F0D9
:101DB0008DFA07B2384601F0C5FAA062284601F054
:101DC000C1FA814649461248006801F089F9804607
:101DD00001F07CFA07B2384601F0B4FAE062002064
:101DE0000649086006490860064908600649086017
:101DF0000649086006490860BDE8F0872800002011
:101E00002C0000203000002034000020380000208A
:101E10003C00002010B50A4800784042084908708C
:101E200008460078012804D181020648FFF70AFB22
:101E300004E04FF480610348FFF702FB10BD00008F
:101E400024000020000C014010B56FF00400FFF7E3
:101E5000B9FC0A4800680A49B0FBF1F0094908706A
:101E60000846007800EB4001C1EBC0104FF6FF714F
:101E700001EAC0000449088010BD000010000020E5
:101E800000127A004E000020500000200146114A46
:101E900012884A434FF0E0235A6100229A611A46A1
:101EA000126942F001021A6100BF4FF0E02210698E
:101EB00000F001021AB100F48032002AF5D04FF090
:101EC000E022126922F001024FF0E0231A610022A1
:101ED0009A617047500000200146114A12784A4327
:101EE0004FF0E0235A6100229A611A46126942F0CB
:101EF00001021A6100BF4FF0E022106900F00102F8
:101F00001AB100F48032002AF5D04FF0E0221269B5
:101F100022F001024FF0E0231A6100229A6170471B
:101F20004E000020FFF769FE08E005210448FFF796
:101F3000A7FE034800F006F8FFF76CFFF5E7000086
:101F40005C0000202DE9F04704464FF08B41A0696A
:101F500001F0C6F8814601F029F807464FF06632D5
:101F6000564B00F005FE054600F058FB60634FF04D
:101F70008B41A06901F0B4F8814601F017F80746DB
:101F80004FF066324D4B00F0F3FD054600F046FB86
:101F9000A0644FF08B41A06901F0A2F8814601F0E6
:101FA00005F807464FF06632444B00F0E1FD054668
:101FB00000F034FBE0654FF08B41A06901F090F830
:101FC000814600F0F3FF07464FF066323B4B00F0CE
:101FD000CFFD054600F022FB206708213848FFF7B7
:101FE00026FA18B14FF07E51A16301E00021A163F0
:101FF00001213448FFF71BFA18B14FF07E51E1641C
:1020000001E00021E16402212E48FFF710FA18B127
:102010004FF07E51216601E000212166042129480C
:10202000FFF705FA18B14FF07E51616701E000211A
:10203000616710212348FFF7FAF910B14FF07E5184
:10204000E16340211F48FFF7F2F910B14FF07E51D4
:10205000216510211A48FFF7EAF910B14FF07E51BF
:10206000616601211848FFF7E2F910B14FF07E5187
:10207000A16720211348FFF7DAF910B14FF07E5124
:10208000216480210F48FFF7D2F910B14FF07E5143
:10209000616520210A48FFF7CAF910B14FF07E515F
:1020A000A16640210648FFF7C2F910B14FF07E51FA
:1020B000E167012084F88000BDE8F08766660A4089
:1020C0000010014000080140000C01402DE9F04FD4
:1020D0008BB004464FF00009CA46CB46D4F8349082
:1020E000D4F834A0A16C606B00F08CFF0746E16D62
:1020F00000F088FF0646216F00F084FF054601F0DE
:10210000E5F800B2F94908800846B0F90000062158
:1021100090FBF1F000EB800084F888004FF08B41D9
:10212000E06A00F0DDFF019000F040FF07464FF04D
:102130006632EF4B00F01CFD00221346CDE9020190
:1021400000F04AFE00224FF08043CDE9040100F088
:102150000FFD0022E74BCDE9060100F045FB002210
:10216000E54BCDE9080100F003FD054600F094FCC5
:1021700000B2E24908800846017889200155DF480D
:102180000088C0F307218A200155D84801788B20A8
:102190000155D6480088C0F307218C20015594F8DA
:1021A000810028B900218D2001558E20015514E0B1
:1021B00094F88100082806D100218D2001550121C5
:1021C0008E20015509E094F881000F2805D10121E6
:1021D0008D20015500218E200155B4F88400B0F502
:1021E0007A7F05DD4FF40061C548FFF729F904E067
:1021F0004FF40061C248FFF725F94946A06C01F091
:102200004CF901D2D4F848904946E06D01F045F907
:1022100001D2D4F85C904946206F01F03EF901D21A
:10222000D4F87090484601F06DF8C1B29020015585
:10223000484601F067F8C0F3072191200155514647
:10224000A06C01F0ABF801D2D4F848A05146E06D83
:1022500001F0A4F801D2D4F85CA05146206F01F03F
:102260009DF801D2D4F870A0504601F04BF8C1B2ED
:1022700092200155504601F045F8C0F30721932004
:1022800001555146484601F039F983469D49A06AF7
:1022900001F003F909D201209B4908709520005DE7
:1022A00040F00101952001550DE09849A06A01F028
:1022B00075F808D20020944908709520005D00F060
:1022C000FE01952001559249606B01F0E6F80ED9A8
:1022D0008F49A06C01F0E1F809D98D49E06D01F05A
:1022E000DCF804D98A49206F01F0D7F809D8012019
:1022F000884908709520005D40F002019520015545
:102300001CE08549606B01F049F817D28249A06C46
:1023100001F044F812D28049E06D01F03FF80DD28F
:102320007D49206F01F03AF808D200207949087001
:102330009520005D00F0FD01952001556B48B0F936
:102340000000B0F51C7F09DD01207449087095205C
:10235000005D40F00401952001550EE06348B0F99E
:102360000000B0F51C7F08DA00206C490870952049
:10237000005D00F0FB0195200155634800780128BD
:1023800007D064480078012803D064480078012809
:1023900006D19420005D40F010019420015505E025
:1023A0009420005D00F0EF0194200155484600F0B4
:1023B000FDFD054600225A4B00F0D8FC03D8012051
:1023C000584908700BE0484600F0F0FD0546002231
:1023D000554B00F091FB02D200205249087053493E
:1023E000504600F0DBFF03D801205149087008E097
:1023F0004FF08341504601F050F802D200204C4982
:1024000008703A48B0F9000040F26221884203DBCC
:1024100001204849087008E03448B0F90000B0F5E0
:10242000187F02DA0020434908703048B0F90000F4
:10243000C82803DC01204049087007E02B48B0F9A8
:102440000000CA2802DD00203B4908703B4958467D
:1024500001F023F803D801203949087007E0394911
:10246000584600F09BFF02D20020354908702348EF
:10247000B0F90000B0F5C37F03DB012032490870DA
:1024800008E01E48B0F90000B0F5C27F02DC002071
:102490002D49087023480078012817D02448007877
:1024A000012813D02348007801280FD02248007853
:1024B00001280BD022480078012807D02348007853
:1024C000012803D020480078012806D19420005D1F
:1024D00040F020019420015505E09420005D00F0BB
:1024E000DF01942001550BB0BDE8F08F42000020C1
:1024F00066660A40000010400040BF4040000020D7
:10250000000C0140000070424400002000006C42BA
:1025100000004442450000200000404246000020E8
:1025200000C0474047000020004047400000704185
:1025300048000020490000204A00002000002041FF
:102540004B000020000010414D0000204C000020F6
:1025500010B504468D20005D012804D181022D486C
:10256000FEF770FF04E04FF480612A48FEF768FF31
:102570008E20005D012804D141022748FEF762FF4A
:1025800004E04FF400712448FEF75AFF9420005DE8
:1025900000F01000012804D141021E48FEF752FF4E
:1025A00004E04FF400711B48FEF74AFF0021E06B86
:1025B00000F058FE0ED10021206D00F053FE09D12D
:1025C0000021606E00F04EFE04D10021A06F00F0EB
:1025D00049FE05D04FF480710E48FEF733FF18E036
:1025E0000021206C00F03EFE13D00021606D00F051
:1025F00039FE0ED00021A06E00F034FE09D000217B
:10260000E06F00F02FFE04D04FF480710148FEF718
:1026100017FF10BD000801400010014021F00042EA
:10262000A2F16052B2F5801F01F0004328BFD2F141
:102630007F6C0BD95FEA001C43EAC20242EB507088
:1026400018BF704728BF20F001007047B2F5801F07
:10265000BCBF184670474FEA410C1CF5001F02D260
:10266000084600F015BF70B500F02CFB0000008993
:10267000FFF7F6BF4FF00040A0F580007047000064
:1026800010B591EA030F48BF83F0004300F1AC831B
:10269000841A71EB030C05D2121943EB0C03001BD7
:1026A00061EB0C01DFF824E14FEA1154A4EB135C59
:1026B0001EEA430F18BF9EEA445F73D023EA0E035D
:1026C000DCF1200E21EA045143F4801332D322FAC4
:1026D0000CFE10EB0E0023FA0CFE41EB0E01CCF1C8
:1026E000200E03FA0EFE10EB0E0051F10001B1F5C1
:1026F000801FCCF1200E32D201EB045112FA0EF2FF
:10270000BDE8104058BF7047401C38BF5FEA420226
:1027100018BF7047002814BF20F0010041F10001EC
:102720004FEA410313F5001F38BF7047A1F1C041C4
:1027300000F016BB012A43EB0302ACF1200CDCF1E4
:102740001F0E32BF4FF0000E23FA0CF310EB030004
:1027500041EB0451B4EB115FD0D0A1EB045101F572
:10276000801149085FEA300001EB04510ED350F1AB
:10277000000038BF12FA0EFE08D1BDE81040C9E7CC
:10278000401C38BF5FEA4202CAD1C3E7BDE810402F
:102790004FEA410313F5001F38BF7047A1F1C04154
:1027A00000F0DEBA9EEA445F08D011EA5E0FBDE891
:1027B000104004BF01F0004100207047BDE8104008
:1027C00070B500F07FFA00BF64FBBE3E0000E0FF82
:1027D000491058BFC1F140415B1058BFC3F140439D
:1027E0008B42EFF3008070472DE9C04130B4DFF831
:1027F000A0C23CEA111418BF3CEA131400F0EC80AC
:1028000081EA03051CEA111444EAD57418BF1CEAD6
:10281000131500F0C780A4EB05044FF0004545EA0E
:10282000C12145EAC32341EA505143EA525304F11E
:102830007F74994204F500344FEAC0204FEAC22267
:1028400008BF904200F09C804FEA13650FF24016DB
:10285000765D4FEA134506FB05F7C7F1807706FB67
:1028600007F74FEAD737A7FB03687642C8F58038E9
:10287000A7FB06CE38BFA8F1010807FB08E64FF01A
:10288000000EA6FB028CE6FB03CEDCF1000CCEF1C1
:10289000004E38BFAEF1010EA6FB0C584FF00007FA
:1028A0004FF00005E6FB0E87A1FB08C6A0FB07CE94
:1028B00016EB0E0645F10005E1FB076515F1E04E4C
:1028C0007EBFA4F580345FEA46066D4116F18007AD
:1028D00045F100054FEA17274FEA066647EA056704
:1028E000A6F1DE46B6F1805F4FEA15251FD93846BE
:1028F00024F0010C05EBC471BCF1FE6F01EB0C116F
:1029000002D8F0BCBDE8008124425CBF01F5801E06
:102910009EEAC47F02D4F0BCBDE80081244238D4D2
:10292000F0BCA1F1C041BDE8004100F019BA4FEA86
:10293000D22242EA43524FEAD323A7FB02864FEA50
:10294000D02040EA415007FB03661EEA0E0F4FEA13
:10295000D12105FB026658BFA6EB0056B6EB005628
:102960004FEA520E4EEAC37E18EB0E0E56EB530E94
:10297000BDD518EB02085E417F1C55F10005B6E796
:102980004FF480154FF000074FF000064FF000089D
:10299000ADE7F0BC4FF0000001F1C04101F0004193
:1029A000BDE8008111EA0C1F0CEA131500D00CE001
:1029B00013EA0C1F00F025804FF00000F0BC81EA04
:1029C000030101F00041BDE80081F0BCBDE8004119
:1029D00081EA030100F0C4B9F0BCBDE8004170B564
:1029E00000F070F9097EFC3E00F007B881EA0301AF
:1029F0004FF0000001F00041704781EA030100F050
:102A0000AFB9F0BCBDE800414FF00000214970476C
:102A1000FFFDFBF9F7F5F4F2F0EEEDEBE9E8E6E4A3
:102A2000E3E1E0DEDDDBDAD8D7D5D4D3D1D0CFCD2A
:102A3000CCCBCAC8C7C6C5C4C2C1C0BFBEBDBCBB63
:102A4000BAB9B8B7B6B5B4B3B2B1B0AFAEADACAB5E
:102A5000AAA9A8A8A7A6A5A4A3A3A2A1A09F9F9E38
:102A60009D9C9C9B9A9999989797969595949393EA
:102A7000929191908F8F8E8E8D8C8C8B8B8A898981
:102A80008888878786858584848383828281818004
:102A90000000FF070000F87F4FEA41034FEA53535D
:102AA000A3F58063D3F11E03C8BFD3F1210C0CDD65
:102AB0004FF0004242EAC12242EA505232FA03FC8D
:102AC0008CEAE17CACEBE1707047102BC4BF0020B6
:102AD000704703F5787CBCF1FF3F04D06FF00042F3
:102AE00082EA2100704770B500F0ECF8499224802A
:102AF00000207047F2E7000051EA030C17D41CF5E0
:102B0000801F58BFBCF5801F00F10680994218BF96
:102B1000704708BF9042704707D711F5801F58BF14
:102B200013F5801F19D499427047894270471CF5EC
:102B3000801F08D5BCF5801FF7D58B4218BF7047A2
:102B400008BF824270474FF4001C1CEB410F38BF96
:102B50001CEB430F01D28B42704770B500F0B2F806
:102B6000922449004FF000514FF08053FFF730BEE0
:102B7000DFF848C170B51CEA111E1EBF1CEA131510
:102B80009EEA0C0F95EA0C0F00F06F8081EA0304B7
:102B900023EA4C134EEAD47E21EA4C1141F4801111
:102BA00043F48013AE44A1FB024CA0FB0365AEF1DD
:102BB0007F7E361955EB0C05A1FB034C4CF100034D
:102BC000A0FB021C16EB0C06654153F10003094201
:102BD00018BF46F0010613F4007F0BD14FEA033112
:102BE0004FEA0530340341EA155140EA16506FF0C0
:102BF00003020AE04FEAC3214FEAC520F40241EA8A
:102C0000555140EA56506FF0020202EB2E4201EBA2
:102C1000025585EACE710AD05FEA440C18BF24F051
:102C2000004450F1000041F1000120EAD47040F26C
:102C3000FE7C624500D270BDA84214BF4FF08044B4
:102C40004FF04044002E08BF0024BEF1806FA8BFA3
:102C5000A1F1C041BDE8704080F282804FF00000D9
:102C600001F1C04101F0004170479EEA0C0F0CEAEF
:102C7000131518BF95EA0C0F06D04FF0000081EA3B
:102C8000030E0EF0004170BD00F01CF88900013EFB
:102C900000F007B800F009B84FEA430C5FEA5C5C4B
:102CA00008D081EA030100F05BB84FEA410C5FEA0B
:102CB0005C5CF6D14FF00000014970470000FF074F
:102CC0000000F87F0EF1020E2EF0030E5EF8046B8A
:102CD000364205D4012A43EB030515F5001F12D82F
:102CE000012841EB010C1CF5001F0CD80ED14FEA56
:102CF000D17C15F5001F0CEB4C0C0CF1020C08BF3D
:102D00004CEBD37C04E04FF0080C01E04FEAD37C9D
:102D10000CEB4C0526FA05F606F00706B6F1040C96
:102D200006D20EEB860CBDE870404CF0010C6047FB
:102D3000DFE80CF0090B02024FF000414FF00000F9
:102D4000A1F5002170BD19461046012851EB010480
:102D500018BFD4F5001484BF002001F0004170BDFD
:102D60000808A0F500114FEA3101704753EA010C41
:102D700017D41CF5801F58BFBCF5801F00F10680DA
:102D80008B4218BF704708BF8242704707D713F5C0
:102D9000801F58BF11F5801F19D48B4270479B428A
:102DA00070471CF5801F08D5BCF5801FF7D59942E8
:102DB00018BF704708BF904270474FF4001C1CEBCF
:102DC000430F38BF1CEB410F01D2994270470FB43B
:102DD0000CBC03BCFFF7C1BE10B591EA030F48BF9E
:102DE00083F000433FF554AC841A71EB030C07D217
:102DF00012198CF0004C43EB0C03001B61EB0C012F
:102E0000DFF8A4E14FEA1154A4EB135C1EEA430F70
:102E100018BF9EEA445F00F0B08023EA6E0352427E
:102E200021EA0451C3EB6E0338BF5B1EDCF1200EB8
:102E300025D322FA0CFE10EB0E0043FA0CFE41EBF8
:102E40000E01CCF1200E03FA0EFE10EB0E0051F134
:102E50000001CCF1200E29D412FA0EF201EB04513C
:102E6000BDE8104058BF7047401C1CBFB2F1004F76
:102E7000704700280CBF491C20F00100704712EB7E
:102E8000020E43EB030218BF4FF0010E4EEA42025E
:102E9000ACF1200CDCF11E0E54D943FA0CFE10EB01
:102EA0000E0051F1FF31CCF11E0ED5D50EF1010E01
:102EB00012FA0EFE404141EB010101EB445C5FEA76
:102EC0005C5C10D910EBDE7001EB045138BFBEF131
:102ED000004FBDE8104018BF704700280CBF491CC8
:102EE00020F00100704730D24FEAD42C11F50011C8
:102EF00024F400641BD0B1FA81F20B3AA41AA41E88
:102F0000D2F12003914030FA03F31943904001EBD2
:102F1000CC71002C01EB0451BDE81040A8BF7047F4
:102F200001F1C0414FF0000001F000417047B0FADC
:102F300080F310FA03F100D110BDE41A173C4805E4
:102F4000C90AE4E701EB045110BD491001EB04513B
:102F5000BDE810404FEA300002E04FF0000170473A
:102F60004A0008BF0042F8D0B2F5001F28BF7047E2
:102F700001F000414FF0000070479EEA445F07D027
:102F800011EA5E0FBDE8104004BF00210020704729
:102F9000BDE8104070B5FFF795FE00BF40DFF63E7C
:102FA00083F00041104670470000E0FF43004FEA05
:102FB000D30C4FEA3C0C43401FBF40070CF160515B
:102FC00013F0FE4F70471CF0006F03D100200CF08F
:102FD000004170470CF0004343EA507010B540EADE
:102FE000CC0000F00FFA00BF000000924FEA000191
:102FF000FFF7B6BE4FF000414FF00000A1F50021F1
:103000007047000090EA010F48BF81F0004100F1D5
:103010007C82421A3CBF801A89184FEAD0524FF086
:103020007F4C1CEA410FA2EBD15318BF9CEA026F00
:1030300000F03B804FF0004C4CEA00204CEA0121AC
:1030400021FA03FC10EB0C0C1ED202F1FF325FEAF6
:103050001C2040EBC25038BF70471CF07F0F4FEA76
:10306000400C18BFBCF17F4F38BF7047C3F120033D
:10307000994008BF20F00100BCF17F4F38BF704776
:10308000A0F1C04000F004BA4FEA3C00000A40EB57
:10309000C25028BF1CF0FF0F4FEA400CE6D018BF0B
:1030A000BCF17F4F38BF7047EAE79CEA026F05D05A
:1030B00010EA5C0F08BF00F00040704710B500F048
:1030C000A1F900BF64FBBE3E401058BFC0F14040B4
:1030D000491058BFC1F140418142EFF30080704771
:1030E0004FF47F0C1CEAD0121EBF1CEAD11392EAE7
:1030F0000C0F93EA0C0F00F0858090EA010F48BF97
:1031000042F4807240F4000C41F400002CF07F4146
:1031100020F07F4000B58142A2EB03020FF2081CB1
:10312000ACEB504EC0F100009EF800E04FEA4E0EAE
:1031300000FB0EFC38BF49004FEA2C1C02F5FA02D6
:103140000CFB0EF34FEACE1E4FEA112C4FEAC121C1
:103150000EEB635E42EB22420EFB0CFC4FEA1C536B
:1031600000FB03114FEA112C4FEA01310EFB0CFC5E
:103170004FEADC4C00FB0C11C14228BF09184CEB94
:1031800003335DF804EB10EB410143EBC250B2F5A1
:103190007C0F38BF704729D512F0F00F1CBF00F12B
:1031A000C04000F00040704700818283848586879C
:1031B00088898B8C8D8E8F919293959697999A9CF6
:1031C0009D9FA0A2A3A5A7A8AAACAEB0B2B3B5B765
:1031D000B9BCBEC0C2C5C7C9CCCED1D4D7D9DCDF3B
:1031E000E2E6E9ECF0F3F7FAFE0000004FEA400CEB
:1031F0000CF1807CBCF17E4F28BF7047B0F1C0401D
:1032000000F046B990EA010F0CEAD11348BF42F42E
:103210008072624538BF634507D213F47F0F16D022
:1032200080EA010000F00040704710B500F0EAF8B5
:10323000097EFC3E00F005B880EA010000F0004085
:10324000704780EA010000F0004000F021B912F45C
:103250007F0F04BF0248704780EA010000F018B9F0
:103260000000C07F50EA010C00F113801CF5000F34
:1032700058BFBCF5000F01D48842704707D710F53E
:10328000000F58BF11F5000F15D4884270478942CE
:1032900070471CF5000F04D5BCF5000FF7D581422F
:1032A00070474FF0807C1CEB400F38BF1CEB410F88
:1032B00001D28142704710B500F0A4F89224490071
:1032C0004FF000504FF08051FFF7FEBE41000B0E53
:1032D000D3F19E0208D950F400034FEA032323FAE6
:1032E00002F048BF4042704710B500F08BF800BFB5
:1032F00049922480002070476FF0004282EA20004B
:1033000070470000C10DD1F19E0206DB4FEA002399
:1033100043F0004323FA02F07047004207D54FEA1A
:103320004001B1F1FE4F02D24FF00000704710B5DE
:1033300000F068F849922480002070476FEA20006E
:103340007047000010F0004148BF4042B0FA80F3DF
:1033500010FA03F2C3F19D030BD051EAC35101EB04
:103360001220530638BF704700F1010008BF20F05B
:1033700001007047B0FA80F310FA03F2C3F19D0325
:103380000AD0D90501EB1220530638BF704700F16F
:10339000010008BF20F001007047000050EA010C56
:1033A00000F113801CF5000F58BFBCF5000F01D4CD
:1033B0008842704707D710F5000F58BF11F5000F6E
:1033C00015D488427047894270471CF5000F04D518
:1033D000BCF5000FF7D5814270474FF0807C1CEBA5
:1033E000400F38BF1CEB410F01D28142704710B52E
:1033F00000F008F8922449004FF000504FF080513F
:10340000FFF762BE0EF1020E2EF0030E5EF8044BC3
:10341000244204D44FEA4102B2F17F4F11D84FEA5F
:103420004003B3F17F4F0CD80ED14FEAD07CB2F1FC
:103430007F4F0CEB4C0C0CF1020C08BF4CEBD17C19
:1034400004E04FF0080C01E04FEAD17C0CEB4C0398
:1034500024FA03F404F00704B4F1040C06D20EEBD2
:10346000840CBDE810404CF0010C6047DFE80CF024
:10347000070802024FF00040A0F5800010BD08468A
:10348000420018BFD2F1807288BF00F0004010BD2A
:10349000FF2141EAD050C005704751EA000C00F10D
:1034A00013801CF5000F58BFBCF5000F01D48142FA
:1034B000704707D711F5000F58BF10F5000F15D44E
:1034C00081427047894270471CF5000F04D5BCF556
:1034D000000FF7D5884270474FF0807C1CEB410FFE
:1034E00038BF1CEB400F01D28842704780EA0100D0
:1034F00081EA000180EA0100FFF779BF90EA010F3D
:1035000048BF81F000413FF584AD421A04D882F0F3
:103510000042A0EB020011444FEAD0524FF07F4C22
:103520001CEA410FA2EBD15318BF9CEA026F4AD0AC
:103530004FF0004C4CEA00204CEA012121FA03FC38
:10354000B0EB0C0C0FD412F0FE0F36D05FEA4C003B
:103550001DD5001240EBC25038BF70471CF03F0F22
:1035600018BF70470BE0A2F101025FEA1C2040EB9C
:10357000C25038BF70471CF07F0F18BF7047C3F1AF
:103580002003994014BF401E20F0010070478008BE
:103590004FEA122308BF7047B0FA80FCA2EB0C027E
:1035A000CCF1280C60FA0CF093EA122F04BF00EB68
:1035B000C25070474FEAC3707047130A5FEADC10CD
:1035C00008BF7047F6E79CEA026F04D010EA5C0F70
:1035D00008BF0020704710B5FFF714FF40DFF63E2C
:1035E00081F000407047000008360008000000200D
:1035F0005C0000008C010008643600085C000020BC
:10360000C4070000A801000801000100010001003A
:10361000010001000100000000A24A0400000000B7
:10362000000000000102030406070809010101016E
:10363000000000000000000000000000000000008A
:10364000000000000000000000000000000000007A
:10365000000000000000000000000000000000006A
:043660000000000066
:04000005080001519D
:00000001FF
